:100000000C942A000C943F000C943F000C943F0089
:100010000C943F000C943F000C943F000C943F0064
:100020000C943F000C943F000C943F000C943F0054
:100030000C943F000C943F000C943F000C943F0044
:100040000C943F000C943F000C943F000C943F0034
:100050000C943F0011241FBECFE5D4E0DEBFCDBF1E
:1000600010E0A0E6B0E0E2E7F2E002C005900D92F9
:10007000AE36B107D9F70E94D9000C9437010C9421
:10008000000092B39F7D92BB92B39F7B92BB982F4F
:10009000907F98BB92B3906892BBEFE8F1E0319704
:1000A000F1F700C0000092B39F7792BB8295807FEA
:1000B00088BB82B3806882BB8FE891E00197F1F73B
:1000C00000C0000082B38F7782BB089592B3906224
:1000D00092BB92B39F7B92BB982F907F98BB92B3B9
:1000E000906892BBEFE8F1E03197F1F700C00000B3
:1000F00092B39F7792BB8295807F88BB82B38068E2
:1001000082BB8FE891E00197F1F700C0000082B355
:100110008F7782BB08958FEF87BB81BB82B38F77C8
:1001200082BB83E30E94410082E30E94410088E297
:100130000E9441008EE00E94410081E00E94410047
:100140008FE193E00197F1F700C0000008950F934D
:100150001F93CF938C01C0E003C00E946600CF5F65
:10016000F801EC0FF11D80818111F7CFCF911F9124
:100170000F910895CF93DF93CDEC8C9FC12D112467
:10018000C695C695C6952C2F220F922F990F990FC1
:10019000920FD82FD91B8DE80E94410080E38C0F6D
:1001A0000E94660080E38D0F0E946600DF91CF9170
:1001B00008950E948B0080E690E00E94A7008AB319
:1001C00081608ABB87E886B980EE87B98FEF84BBF0
:1001D00086B1806486B9349BFECFC5B18C2F0E9456
:1001E000BA008FE19EE40197F1F700C0000080E4BF
:1001F0008CBF91E693BF8BBF82E085BF78948FEF71
:100200008C0F883288F489E085BB8FE99FE00197E5
:10021000F1F700C0000081E085BB8FED9EE2019701
:10022000F1F700C00000D4CF87ED8C0F883288F43E
:100230008AE085BB8FE79EE30197F1F700C00000DD
:1002400082E085BB8FE79EE30197F1F700C00000D5
:10025000BFCF8FEA8C0F833118F48CE085BBB8CF09
:10026000C43618F08CEE85BBB3CF15BAB1CFF89475
:02027000FFCFBE
:0E02720054656D70657261747572653A0000B6
:00000001FF
